:100000000C94C5020C94FD020C94FD020C94FD02AC
:100010000C94FD020C94FD020C94FD020C94FD0264
:100020000C94FD020C94FD020C94651C0C94211C94
:100030000C94621D0C94FD020C94FD020C94FD02C4
:100040000C94FD020C94FD020C94FD020C94FD0234
:100050000C94FD020C943E1D0C94FD020C94FD02C8
:100060000C94FD020C94FD020C94FD020C94FD0214
:100070000C94FD020C94FD020C94FD020C94FD0204
:100080000C94FD020C94FD020C94FD020C94FD02F4
:100090000C94FD020C94FD020C94FD020C94FD02E4
:1000A0000C94FD020C94FD020C94FD020501090262
:1000B000A10185020901A1000509190129081500FE
:1000C0002501950875018102050109300931158165
:1000D000257F95027508810609381581257F9501D0
:1000E00075088106050C0A38021581257F95017572
:1000F000088106C0C005010980A101850319012AF4
:10010000B700150126B700950175108100C0050CD8
:100110000901A101850419012AA002150126A002E6
:10012000950175108100C005010906A1018506052C
:100130000719E029E71500250195087501810205D9
:1001400007190029EF1500250195F07501810205B9
:10015000081901290595057501910295017503910D
:1001600001C00660FF0961A1010962150026FF00B8
:100170009520750881020963150026FF00952075FA
:10018000089102C005010906A101050719E029E748
:1001900015002501950875018102950175088101F9
:1001A0000507190029FF150026FF0095067508812F
:1001B000000508190129059505750191029501753C
:1001C000039101C0000000000000000000000000DA
:1001D000000000000000000000000000000000001F
:1001E00000000000000000007E0F00D4FFFFFFC7EA
:1001F0000000007800000000000000002A2B28000A
:1002000000000000000000000000000000000029C5
:10021000000000002C1E3420212224342627252E05
:10022000362D3738271E1F2021222324252633333D
:10023000362E37381F0405060708090A0B0C0D0E69
:100240000F101112131415161718191A1B1C1D2F35
:100250003130232D350405060708090A0B0C0D0E55
:100260000F101112131415161718191A1B1C1D2F15
:100270003130354C0001010101010101010102028F
:100280000202020202020203030303030303030444
:10029000040404040404050505050506060606060F
:1002A000070707070708080808090909090A0A0AC9
:1002B0000B0B0B0C0C0C0D0D0D0E0E0E0F0F0F106B
:1002C00010111111121213131414151516161717F5
:1002D000181819191A1A1B1B1C1D1D1E1E1F202061
:1002E000212222232424252626272829292A2B2CAB
:1002F0002D2D2E2F30313232333435363738393ACE
:100300003B3C3D3E3F404142434445464748494AC5
:100310004C4D4E4F50515354555658595A5B5D5E93
:100320005F616264656668696B6C6D6F707273752E
:1003300077787A7B7D7E8082838587888A8C8E8F92
:1003400091939596989A9C9EA0A2A3A5A7A9ABADC0
:10035000AFB1B3B5B7BABCBEC0C2C4C6C9CBCDCFAE
:10036000D1D4D6D8DBDDDFE2E4E7E9EBEEF0F3F55C
:10037000F8FAFDFF29001E001F00200021002200C6
:10038000230024002500260027002D002B00140048
:100390001A000800150017001C0018000C001200BD
:1003A00013002E002A0004001600070009000A00AE
:1003B0000B000D000E000F00330034002C001D0058
:1003C0001B00060019000500110010003600370060
:1003D00038002800E341E000E100E24200000000B4
:1003E0000000A8004C412C0065422B0035001E0285
:1003F0001F022002210222022302240225022602D9
:1004000027022A003A003B003C003D003E003F002E
:10041000400041004200430044004500A9004A005A
:10042000F400F000F500F9004B0052004E00760099
:1004300030000100AA004D00F200F100F300FA00C4
:10044000500051004F002F00310001000100E0007A
:10045000E100E200000000000000B2000100010025
:1004600001000100005CA600A7000100A50001003A
:10047000230024002500260027002A004C00C55C2C
:10048000C75CC95CC35C010001000100AF00B300A0
:1004900054005500C25CC65CC85CCA5CC45CCD5CE0
:1004A0000100010001000100010001000100010044
:1004B000500051004F000100010001000100010047
:1004C0000100010001000100E10001000000000046
:1004D00000001103010001000100630009025B003C
:1004E000030100A0FA090400000103010100092131
:1004F00011010001224000070581030800010904E1
:100500000100020300000009211101000122220064
:1005100007058203200001070503032000010904E9
:100520000200010300000009211101000122B600B0
:10053000070584032000011201000200000008EDFD
:10054000FE60600100010200012403430068006FA7
:10055000006300200050007400650072006F006EA0
:1005600000350036002D004C00580031000000140A
:10057000034D006F006F00720065006B006500792D
:100580000073000000040309040011241FBECFEF14
:10059000DAE0DEBFCDBF04B603FE18C080918E0244
:1005A00090918F02A0919002B09191028730904B70
:1005B000A740B04B59F410928E0210928F02109205
:1005C000900210929102E0E0F8E3099511E0A0E0BA
:1005D000B1E0E6E7F7E402C005900D92AE36B10750
:1005E000D9F722E0AEE6B1E001C01D92AE38B20705
:1005F000E1F70E94891D0C9490230C940000E8ED13
:10060000F0E080818E7F80831092E2001092DA0009
:100610001092E100A0EEB0E08C9181608C9380811B
:100620008F77808319BCA7EDB0E08C918E7F8C937F
:1006300080818F7E808310925B0208952091E40078
:100640003091E50095E6A9012091EC00822F8170A0
:1006500020FF06C08091E80080FF06C080E008957A
:100660002091E80022FD1AC080918002882389F041
:10067000853089F08091EB0085FD0FC02091E4006A
:100680003091E50042175307F9F29150E1F684E00A
:10069000089582E0089583E0089581E00895EF923F
:1006A000FF920F931F93CF937C018B010E941E0337
:1006B000C82F811117C08091E80085FD0BC0809183
:1006C000E8008E778093E8000E941E03882399F348
:1006D000C82F08C0F70181917F018093F10001507C
:1006E000110949F78C2FCF911F910F91FF90EF9037
:1006F00008958091820287FF13C08091E80082FFF5
:1007000006C08091E8008B778093E80004C0809158
:1007100080028111F2CF0895809180028823D9F35D
:100720008091E80080FFF8CF8091E8008E77ECCFD1
:10073000982F9093E900242F762F50E0891731F0FD
:100740007091EC002091ED005091F00021FD07C068
:100750009F5F973071F78093E90081E008953091B1
:10076000EB003E7F3093EB003091ED003D7F309306
:10077000ED003091EB0031603093EB007093EC00B2
:100780002093ED005093F0002091EE0027FDE0CF84
:1007900080E00895B0E0A0E0E0EDF3E00C940E23DB
:1007A000C8EDD0E088818F7E8883E7EDF0E080811E
:1007B0008160808384E082BF81E080935B028881D6
:1007C0008E7F888302EE10E0F80110821092DA002A
:1007D00081EEC82ED12CF601108288818F77888314
:1007E00088818068888388818F7D888319BC109276
:1007F00080021092810210927F0210927E0290EE8F
:10080000E92EF12CF70180818B7F808388818160C4
:10081000888342E060E080E00E949803F6018081D6
:100820008E7F8083F80180818160808380818860F1
:100830008083F70180818E7F8083888180618883B7
:10084000CDB7DEB7E8E00C942A23FC018091880242
:100850009091890286179707A0F06115710529F418
:100860009091E8009E779093E80090E06115710503
:1008700051F4911108C08091E80082FF34C080E0FB
:100880000895BC01F2CF809180028823C1F18530A8
:10089000C1F18091E80083FD30C08091E80082FDC5
:1008A000EACF8091E80080FFE1CF8091F3002091B2
:1008B000F200382F6115710519F02830310558F014
:1008C00091E02830310509F090E02091E8002E7782
:1008D0002093E800CBCF81918093F10061507109A2
:1008E0002F5F3F4FE7CF80918002882341F0853012
:1008F00041F08091E80083FFBECF81E0089582E05F
:10090000089583E00895089580915D0208959C0103
:100910004FB7F8948091520290915302A0915402E3
:10092000B09155024FBF821B930B08952FB7F894D7
:10093000609152027091530280915402909155023D
:100940002FBF08952FB7F8948091520290915302CF
:10095000A0915402B09155022FBF089520914F02EB
:10096000309150022817390771F09093500280930C
:100970004F02E0914D02F0914E02309721F0008439
:10098000F185E02D0995089520914B0230914C029C
:100990002817390771F090934C0280934B02E09135
:1009A0004D02F0914E02309721F00680F781E02D44
:1009B00009950895E0914D02F0914E02309729F08B
:1009C0000190F081E02D0995089580E00895FA01E5
:1009D000811101C0FB010995089580914602982F6D
:1009E0009E7F39F480914602817082608093460236
:1009F00008958430B8F708950E94A2049C01909154
:100A0000390280913A02982B21F0309336022093DC
:100A1000350290913B0280913C02982B21F030935B
:100A2000340220933302E0914D02F0914E02309750
:100A300049F082E0809337020480F581E02D87E35E
:100A400092E00995089540913902803F59F48091D0
:100A50003A0287FF0DC010923A0241110BC010926A
:100A6000310208C0813F81F480913A0218169CF34C
:100A7000442381F080913B0290913C02892B09F044
:100A80005AC0109230020895823F49F447FFF0CFD8
:100A90001092390280913A028111ECCFE0CF833F6E
:100AA00019F41416ACF3E4CF90913B02893F29F47A
:100AB0001916F4F610923B02DBCF8A3F19F497FF28
:100AC000D7CFF8CF90913C028B3F29F497FFD0CF3E
:100AD00010923C02CDCF8C3F19F41916CCF3C8CF3D
:100AE0009CE0980F953090F4845F990B21E030E002
:100AF000B90102C0660F771F8A95E2F7CB01809596
:100B000090913802892380933802B2CF8D3F31F41F
:100B1000809132028E7F80933202AACF8E3F21F4E1
:100B2000809132028D7FF7CF8F3F09F0A1CF809166
:100B300032028B7FF0CF08958091320280FD16C083
:100B400081FD16C082FD16C0809130028823A1F07D
:100B5000883280F428E0829FC001112468E270E0AE
:100B60000E94E322862F672B39F0089582E00895D2
:100B700084E0089588E0089581E00895809132022C
:100B800080FD14C081FD14C082FD16C08091310229
:100B9000882381F08E3180F420E5829FC0011124EA
:100BA0006EE170E00E94E322862F089584E10895AB
:100BB00088E2089588E0089580E50895803F31F443
:100BC0000E94BE05819580933A020895813F19F4F1
:100BD0000E94BE05F8CF823F31F40E94BE05819588
:100BE000809339020895833F19F40E94BE05F8CF1F
:100BF000893F29F40E949C0580933B0208958A3F17
:100C000021F40E949C058195F7CF8B3F31F40E941F
:100C10009C05819580933C0208958C3F19F40E94B5
:100C20009C05F8CF9CE0980F953070F4845F990B89
:100C300021E030E001C0220F8A95EAF78091380266
:100C4000822B8093380208958D3F31F480913202D7
:100C500081608093320208958E3F21F480913202A8
:100C60008260F7CF8F3FB9F7809132028460F1CF75
:100C700080E00895F894E82FE295EF70F0E031A15C
:100C8000282F2F7081E090E001C0880F2A95EAF7A5
:100C9000982F9095932391A392A1892B82A3789466
:100CA00008959091560292FF06C0282F287128308F
:100CB000F9F4877F846093FF06C0282F28712831BC
:100CC000F1F4877E84612091570220FF06C0382FFF
:100CD00038713830D9F4877F816021FF06C0282F12
:100CE00028712831D1F4877E816194FD877E089533
:100CF000282F24712430F9F68B7F8860DCCF282FD1
:100D00002471243101F78B7E8861DDCF382F31715A
:100D1000313019F78E7F8860E0CF282F2171213183
:100D200021F78E7E8861E1CFCF93DF93EC0182388B
:100D30009105B1F108F040C08133910509F49DC0DF
:100D400048F58932910509F48DC08A9709F49CC051
:100D5000C11521E5D20708F0C3C0C11530E5D3079E
:100D600008F01EC1C83ED10508F0A3C0C13ED105A0
:100D700088F5C83AD10508F08EC0C53AD10508F00B
:100D800007C1C130D10531F1209721F1C430D1051F
:100D900008F545C08533910509F45FC0C997C1F6D0
:100DA00080915602837009F043C18091570283FFFE
:100DB00011C0C9E2D0E00EC0833E910599F170F4F4
:100DC000803E910501F1823E910511F68091560217
:100DD00082FD21C0CE01DF91CF910895863E91051D
:100DE00061F1873E910571F1843E910509F0B0CF24
:100DF0008091570281FFEECF80915602C7EED0E07E
:100E000084FD0DC0E7CF8091560280FD33C09091E4
:100E1000570290FFDFCFC3EED0E084FFDBCFD0E0FE
:100E2000C0E0D8CF8091560282FDFFC0909157025A
:100E300090FDFEC084FFCECFF2CF8091560283FD9D
:100E4000DDCFC8CF8091560283FDF5C09091570247
:100E500091FFF0CFC4EED0E0BDCF8091560285FF68
:100E6000B9CFA7CF8091560285FDE8C08091570287
:100E700083FFB0CFC9E3D0E0ADCF8091560286FFAB
:100E8000A9CFCAE2D0E0A6CF8091560286FFA2CFBA
:100E9000C1E3D0E09FCFCF3BD10508F6C85AD0E0E0
:100EA000CC0FDD1FC05FDE4F0990D881C02DD46408
:100EB00091CFC11540E2D40758F4C11581E0D8079D
:100EC00008F088CFC03FD10508F4A9CFD06582CF04
:100ED000C11520E4D20708F4A2CFDF70D06A7ACF20
:100EE000C11535E5D30718F5C11544E5D40708F059
:100EF00084C0C11583E5D80708F06BC0C11522E591
:100F0000D20708F461C0CE018370992721E030E058
:100F100002C0220F331F8A95E2F7C695C69580E27C
:100F2000C89FE0011124C22BD32BDC6853CFC1151D
:100F300039E5D307A8F4C11548E5D40708F062C025
:100F4000C11586E5D80708F06ACF8C2F0E9451069C
:100F5000C82FD0E0DC2FCC27CC27DF71D0623ACF6E
:100F6000C1152AE5D20708F452C0CE01905681156A
:100F7000904208F054CF8D2F8F710E94510690E05F
:100F8000982F882788279F719C012C2BE901E6CF99
:100F9000C55AD0E0C35FDE4FC881D0E0D0641ACF1D
:100FA000CE018370992721E030E002C0220F331F69
:100FB0008A95E2F7C695C69540E2C49FE0011124E8
:100FC000C22BD32BDD6806CFDC2FCC27C16FD06AB4
:100FD00001CFCE018370992721E030E002C0220FBB
:100FE000331F8A95E2F7C695C69540E2C49FE0019B
:100FF0001124C22BD32BDA68EDCEDC2FCC27C46FA3
:10100000D06AE8CEDC2FCC27C06FD06AE3CE8C2F1D
:101010008F700E94510634E0D695C7953A95E1F756
:10102000CF709C2FEC01D069D5CEC2EED0E0D2CEED
:10103000C0EED0E0CFCEC6EED0E0CCCEC5E3D0E05F
:10104000C9CE809104028111109204020895809506
:1010500090910302982390930302089590910C01BC
:101060009923D1F09091560297FF16C0E82FE6958C
:10107000E695E695EE31E0F4F0E0E059FE4F282FDA
:10108000277081E090E001C0880F2A95EAF78095EB
:101090009281892382830895E2E7F1E09191891397
:1010A00003C0DF0111971C9291E0E837F907B1F70F
:1010B000089590910C019923C1F09091560297FFE9
:1010C00014C0E82FE695E695E695EE31F8F4F0E0E9
:1010D000E059FE4F877021E030E001C0220F8A9571
:1010E000EAF78281822B82830895A2E7B1E0EFEFD5
:1010F00090E02D91821751F0EF3F19F4211101C0BA
:10110000E92F9F5F9630A9F7EF3F09F408950E2E5F
:10111000000CFF0BE059FE4FE6CF8091E00190916B
:10112000AF01981301C008958F5F8770FACF292F00
:10113000953078F58C3068F590E03CE0239F800D89
:10114000911D1124682F677023E0969587952A9545
:10115000E1F7FC01EE0FFF1FE80FF91FEF56FE4FFE
:1011600050E040E080E0219130E0062E02C036954C
:1011700027950A94E2F721703327042E01C0220F2D
:101180000A94EAF7822B4F5F5F4F4330510559F7BE
:10119000089580E00895292F953098F58C3088F5D2
:1011A00090E03CE0239F800D911D1124282F277093
:1011B00041E001C0440F2A95EAF723E09695879510
:1011C0002A95E1F7FC01EE0FFF1FE80FF91FEF561C
:1011D000FE4F30E020E070E05191DF011197CB012C
:1011E000022E02C0969587950A94E2F78170819548
:1011F0008527842385278C932F5F3F4F233031052C
:1012000059F708958093580270935A0260935902D7
:10121000809180028430F9F48093E9008FEF9091FF
:10122000E800815095FD06C095ED9A95F1F7000014
:101230008111F5CF8091E80085FF0DC050E040E0BE
:1012400063E070E088E592E00E944F038091E8003F
:101250008E778093E8000895BC0184E00E94020923
:101260000895BC0183E00E94020908959C0184E076
:101270008093E9009FEF8091E800915085FD06C0C2
:1012800085ED8A95F1F700009111F5CF8091E80086
:1012900085FF0CC050E040E066E070E0C9010E94AC
:1012A0004F038091E8008E778093E8000895CF93F4
:1012B000DF93EC0180910C018823B1F180915602FB
:1012C00087FF32C060E284E08093E9008FEF909165
:1012D000E800815095FD06C095ED9A95F1F7000064
:1012E0008111F5CF8091E80085FF1BC080910C0132
:1012F00070E050E040E0811104C050E040E068E060
:1013000070E0CE010E944F038091E8008E778093B9
:10131000E80080E2FE01AEE5B2E001900D928A9510
:10132000E1F7DF91CF91089568E081E0CDCF81E0D2
:101330008093E00080E28093D8001092C9008FE192
:101340009EE40197F1F700C0000087E090EBDC011C
:1013500080938E0290938F02A0939002B09391029B
:1013600088E19CE00FB6F894A895809360000FBECA
:1013700090936000FFCF8091460280FD12C01092D2
:101380003E0210923D0210923F02109241021092D2
:1013900040021092420210924402109243021092B4
:1013A0004502809A31B33E7F21B321604FB7F89454
:1013B0008DE392E0FC015191CF0168E021BB000078
:1013C00000C057FF31BB550F000000C000C000C077
:1013D00031BB00C06A9591F7F2E086349F0751F760
:1013E0004FBF8FE594E00197F1F700C0000008952A
:1013F000CF93DF93C7E0D2E060E0CE010E944F239D
:101400002196C11584E0D807B9F7DF91CF910895EF
:101410001F93CF93DF93122F8430E0F46530D0F424
:101420004C30C0F4C42FD0E0CC0FDD1F98E1699F91
:10143000C00DD11D112498E7899FC00DD11D112425
:10144000632FCE0187960E944F23612FCE0188968D
:101450000E944F23DF91CF911F910895B0E0A0E04B
:10146000E4E3FAE00C940D2394E7C92E93E0D92E1F
:1014700010E000E07601B12C1AC003301105D1F064
:10148000FE01EE0FFF1FEE0DFF1D259134914C2F35
:101490006B2D802F0E94080A2196CC30D10569F768
:1014A00088E1E80EF11CB39485E0B81649F0D0E06D
:1014B000C0E0E3CF21E030E04C2F6B2D83E0EACF9A
:1014C0000F5F1F4F88E7C80ED11C0430110591F63D
:1014D000CDB7DEB7E9E00C942923CF93C82F6FEF87
:1014E000811163E283E290E00E944F236FEFC1110C
:1014F00061E084E290E00E944F236FEFC11166E249
:1015000085E290E00E944F23CF91089580E00E94F1
:101510006D0A60E086E290E00E944F230E942E0A4E
:101520000E94F80981E00E946D0A08950F931F93AD
:10153000CF93DF93843030F5653020F54C3010F5D3
:10154000C42FD0E0CC0FDD1F28E1629FC00DD11D5C
:10155000112438E7839FC00DD11D1124CE01879639
:101560000E943B23082F10E0102F0027CE01889601
:101570000E943B239801282BC901DF91CF911F9135
:101580000F91089590E080E0F8CF462F843040F42A
:10159000753030F46C3020F4672F0E94960A08955D
:1015A00090E080E00895CF92DF92FF920F931F9317
:1015B000CF93DF936C0100918D0280910502082B7F
:1015C000C7E0D0E010E0FC2EC8010C2E02C09595BB
:1015D00087950A94E2F780FD0CC02197A0F7F12CC3
:1015E0008F2DDF91CF911F910F91FF90DF90CF90C2
:1015F0000895B6018C2F0E94C50A0E949406019797
:1016000061F3EECFCF93DF93EC010E94D30ABE01CA
:101610000E94C50A0E949406DF91CF910895FC01B3
:1016200083819481892B29F08081918189238F3F47
:1016300051F480E00895843FE1F717C0883EA8F098
:10164000813FB9F712C0808191810E94020B92956F
:101650009F70963099F358F4925F9F70923048F7DC
:10166000803F19F040F7883E20F781E008959A5FA7
:10167000F4CF83E290E00E943B23833289F484E23A
:1016800090E00E943B23813059F485E290E00E9473
:101690003B2391E0863209F090E0892F8170089514
:1016A00080E0FCCFCF9384E090E00E943B23C82FE2
:1016B00082E290E00E943B23982F8C2FCF910895D7
:1016C000CF92DF92EF92FF926B017C010E94ED04BA
:1016D000B701A60188E090E00E946123FF90EF909F
:1016E000DF90CF900895B0E0A0E0E9E7FBE00C9434
:1016F0000A23D82FC62FD42E822EC0904602C0FEB9
:1017000035C08C2D8E7F8230F9F4E42FF0E0EC5858
:10171000FD4F611130C02491F22FE22FC0FE14C0A2
:10172000E0933E0220933D02F0933F02E09341029A
:1017300020934002F0934202E0934402209343023C
:10174000F09345020E94BB09D0934702C093480220
:10175000D0924902882051F0609146027091470270
:1017600080914802909149020E94600BCDB7DEB78C
:10177000ECE00C942623E62EF12CE4919E2E0E2F05
:1017800010E026E0D29FC00111242FEF30E0B90114
:101790000E94CF228D2F90E0880F991FF5E5F69FCC
:1017A000A001F79F500D1124841B950BB82EBB0C84
:1017B000B80EA9014E195F09409FC001419F900DCD
:1017C000509F900D1124F92FCB9DA0011124452F7E
:1017D0005527D901A41BB50BA09FA001A19F500DB7
:1017E000B09F500D1124D901AB19B1095D01AE9C18
:1017F000D001AF9CB00DBE9CB00D1124AB2FBB2708
:101800002A1B3B0B209FD001219FB00D309FB00DB4
:1018100011242B2F62307105A1F050F46115710570
:1018200009F47CCF6130710581F0292FF52F76CF37
:101830006430710569F080F06630710509F46ECF8F
:10184000F4CF2E2FE92FFB2F69CF2E2FE52F66CF58
:10185000292FFE2FEB2F62CFE92FF92D252F5ECFF9
:10186000E6E4F2E0438128E0421B08F440E021E096
:10187000628181810E94730B0895E6E4F2E0438166
:1018800028E0420F08F44FEF21E0628181810E943D
:10189000730B0895E6E4F2E0628128E0621B08F42D
:1018A00060E021E0438181810E94730B0895E6E4AA
:1018B000F2E0628128E0620F08F46FEF21E04381DB
:1018C00081810E94730B0895E6E4F2E0818121E0BA
:1018D0004381628188500E94730B0895E6E4F2E030
:1018E000818121E043816281885F0E94730B0895AA
:1018F00080914A02882319F0815080934A026091B6
:1019000046027091470280914802909149020E94DC
:10191000600B089580914A02833018F48F5F8093A2
:101920004A0260914602709147028091480290916C
:1019300049020E94600B08958091460280FF19C001
:101940008170826080934602662351F06091460266
:101950007091470280914802909149020E94600B69
:1019600020E04091490260914802809147020E9424
:10197000730B0895809146028695815009F481E0A9
:1019800061E00E949C0C089561E081E00E949C0C43
:101990000895E6E4F2E083E0808311828FEF828392
:1019A0008383148260817181828193810E94600BA4
:1019B00008958091030290910202892B8093700117
:1019C000909104029923A1F0892B8093700180915A
:1019D0000C018823E1F18091560287FF38C08EE127
:1019E000E2E7F1E090E08150A0F591110E9421081A
:1019F00040E250E062EE71E080E791E00E948323D4
:101A0000892B21F180E2E0E7F1E0A2EEB1E0019064
:101A10000D928A95E1F7E0914D02F0914E023097D8
:101A2000A9F080910C01882359F08091560287FF1C
:101A300007C0809170018093710186E080937001EE
:101A40000280F381E02D80E791E00995089586E01A
:101A5000C7CF2191222339F29F5FC5CF90E080E06C
:101A60000E94C40490E080E00E94AE041092020242
:101A70000E94D90C86E0E7E3F2E0DF011D928A952F
:101A8000E9F71092310210923002109232020E9455
:101A9000FC04089580938D020E942E0D089580917C
:101AA0008D02982F9670963021F488600E944A0D1E
:101AB0000895877FFBCF21E030E001C0220F8A9597
:101AC000EAF7209580918D0282230E944A0D0895A5
:101AD0009091E101809589238093E101282F27705F
:101AE00091F4282F082E000C330B9217130659F08F
:101AF0009091570292FF07C08595859585950E9424
:101B00005B0D1092E1010895CF93C0915702C2FB83
:101B1000992790F9981791F080FBC2F9C09357026A
:101B20006091560284E090E00E944F236C2F82E285
:101B300090E00E944F2382E00E94680DCF910895AB
:101B400021E030E001C0220F8A95EAF780918D02F2
:101B5000822B0E944A0D0895809305020E942E0D4B
:101B60000895882321F00E9427080E94D90C089527
:101B7000882339F090910302982B909303020E94DE
:101B8000D90C0895882309F455C0823879F40E944D
:101B9000DA0481FF4FC089E30E9459080E94D90CE2
:101BA00089E30E942E080E94D90C0895833859F4C5
:101BB0000E94DA0480FF3EC083E50E9459080E941B
:101BC000D90C83E5EECF843859F40E94DA0482FF01
:101BD00031C087E40E9459080E94D90C87E4E1CF04
:101BE0009CEF980F913AE8F290E2980F983050F4F9
:101BF000877091E001C0990F8A95EAF7892F0E94BA
:101C00002708D1CF9BE5980F933028F490E080E02F
:101C10000E94C404089598E5980F973128F490E045
:101C200080E00E94AE040895803F20F00E942305CA
:101C30000E94FC040895CF93C82F8823C9F08238EE
:101C4000C9F40E94DA0481FD13C089E30E94590897
:101C50000E94D90C2FEF87EE93E0215080409040F6
:101C6000E1F700C0000089E30E942E080E94D90C11
:101C7000CF9108958338A1F40E94DA0480FDF8CF53
:101C800083E50E9459080E94D90C2FEF81EE94E061
:101C9000215080409040E1F700C0000083E5E4CF90
:101CA0008438A1F40E94DA0482FDE2CF87E40E9426
:101CB00059080E94D90C2FEF81EE94E0215080400A
:101CC0009040E1F700C0000087E4CECF8CEF8C0F8E
:101CD000813A88F580910C01882301F180915602A8
:101CE00087FF1CC0EC2FE695E695E695F0E0E059FD
:101CF000FE4F828190E04C2F477021E030E002C01F
:101D0000220F331F4A95E2F782239323892B79F020
:101D10008C2F0E942E080E94D90C09C0E2E7F1E046
:101D20008191C817A9F321E0E837F207C9F78C2F92
:101D30000E9459089BCF80E28C0F883068F4C770EE
:101D400021E030E001C0220FCA95EAF7809103023A
:101D5000822B809303028ACFEBE5EC0FE33040F453
:101D6000F0E0E35FFE4F808190E00E94C40480CFEA
:101D7000E8E5EC0FE73150F4F0E0EE0FFF1FE05F15
:101D8000FE4F808191810E94AE0472CFC03F08F463
:101D90006FCF8C2F0E94DE050E94FC0469CF1F9339
:101DA000CF93DF93182FD0E0C0E0893311F4C0E562
:101DB000D0E0812F0E941B0E209739F4812F0E94C2
:101DC000C20DDF91CF911F9108958FE99FE0019798
:101DD000F1F700C000002197EFCF0F931F93CF932F
:101DE000DF93C62FD42F022FFC0182818823A9F014
:101DF00060938C020E94A20490938B0280938A02CB
:101E0000C77081E001C0880FCA95EAF70E94B80D3B
:101E1000DF91CF911F910F91089580918C026813EB
:101E200032C080918A0290918B020E948704883C84
:101E3000910548F510E21D0FCD17B9F080E28C0F27
:101E4000883040F4C77081E001C0880FCA95EAF776
:101E50000E94B10D183048F481E09D2F977001C0A9
:101E6000880F9A95EAF70E94B80D802F0E94CF0E36
:101E7000183070F6D77081E001C0880FDA95EAF764
:101E80000E94B10DC5CFC77081E001C0880FCA950F
:101E9000EAF7F6CF68EE7EEF90E080E00E946D23D7
:101EA00060E082E090E00E944F2360E083E090E0F9
:101EB0000E944F231092050260E084E090E00E94AF
:101EC0004F2364E082E290E00E944F2360E085E0CF
:101ED00090E00E944F2360E086E090E00E944F2354
:101EE0006FEF87E090E00E944F2340E050E0BA019E
:101EF00088E090E00E94612360E08DE090E00E9425
:101F00004F2340E050E0BA0188E190E00E94612355
:101F100060E087E190E00E944F2340E050E0BA018A
:101F20008CE190E00E94612370E060E080E290E04C
:101F30000E946D2340E050E0BA0188E190E00E94E9
:101F4000612380E00E946D0A0E94860A40E050E012
:101F5000BA018FE090E00E94612340E050E0BA01B6
:101F600083E190E00E946123089510920302809122
:101F70000C01E2E7F1E0882361F08091560287FFCF
:101F800008C08EE1DF011D928A95E9F70E942E0DAF
:101F9000089586E0F7CFAAE2B0E0E1EDFFE00C940F
:101FA000132382E892E02091F100DC012D93CD0112
:101FB000B2E08A389B07B9F780918302833009F435
:101FC00072C0B8F4813009F449C0823009F4B3C05A
:101FD0008091E80083FF8BC28091820290918302FE
:101FE0009A3008F084C2E92FF0E0EE56FC4D0C94D4
:101FF000F7228A3009F48EC08B3009F471C0893021
:1020000039F780918202813219F78091860290918E
:102010008702009711F00297D9F68091E800877F38
:102020008093E8008091E80082FF38C09091F3002F
:102030008091F200029731F48091F100813011F02B
:10204000863021F48091F10080935D028091E80058
:102050008B778093E8000E947903BACF8091820247
:10206000813A09F0B5CF8091E800877F8093E8003E
:102070008091860290918702892B61F460E28EE55F
:1020800092E070E00E9425048091E8008B778093B5
:10209000E8009ECF60E090E080E0F3CF8091800286
:1020A0008111C0CF95CF80918202813A09F090CF03
:1020B0008091860290918702892B09F089CF8091C7
:1020C000E800877F8093E8008091E80080FFFCCFE4
:1020D00080910C018093F1008091E8008E77B9CF58
:1020E00080918202813209F073CF809186029091B3
:1020F0008702892B09F06CCF8091E800877F80935D
:10210000E8000E9479038091840280930C010E9470
:10211000B50F5ECF80918202813209F059CF809154
:10212000E800877F8093E8000E9479038091850210
:1021300080935C024DCF80918202813A09F048CFB2
:102140008091E800877F8093E8008091E80080FF1D
:10215000FCCF80915C02BECF803899F0823809F0C4
:10216000C6C1809186028F70873008F0C0C180930D
:10217000E9008091EB0085FB882780F91092E90047
:1021800006C080917E0290917F02911182609091B1
:10219000E800977F9093E8008093F1001092F1009F
:1021A0008091E8008E779FC1882309F48DC1823029
:1021B00009F09DC180918402811190C180918602B5
:1021C0008F702FEF280F263008F091C18093E9001F
:1021D0002091EB0020FF82C1933031F48091EB001D
:1021E00080628093EB007AC19091EB0090619093B4
:1021F000EB0021E030E001C0220F8A95EAF720933E
:10220000EA001092EA008091EB008860EACF811129
:102210006EC1109184021F778091E3008078812B3A
:102220008093E3008091E800877F8093E8000E941C
:1022300079038091E80080FFFCCF8091E300806803
:102240008093E30082E0111183E0809380024FC10C
:102250008058823008F04BC1209184023091850271
:102260002C3DE3E03E07A1F583E08A838AE289837F
:102270004FB7F894DE01139620E03EE051E2E32FE1
:10228000F0E050935700E49120FF03C0E295EF7017
:102290003F5FEF708E2F90E0EA30C0F0C7968D93CD
:1022A0009D932F5F243159F74FBF8091E800877FBE
:1022B0008093E8006AE270E0CE0101960E94250456
:1022C0008091E8008B778093E80011C1C096E7CF3A
:1022D0008091860290918702432F55274330510504
:1022E00009F44AC078F54130510509F47AC08BE50C
:1022F00090E0ECEDF4E04230510509F0F8C0209197
:10230000E800277F2093E80020918802309189021D
:102310008217930708F49C0140E02115310509F06C
:1023200065C0411163C08091E80082FDC9CF8091F2
:102330008002882329F2853019F28091E80083FF1A
:10234000F2CFBECF4132510509F43CC042325105B3
:1023500009F0CDC08330910508F0C9C0FC01EE0F33
:10236000FF1FEE59FE4F0190F081E02D815A9E4FE4
:10237000DC018C9190E01AC0332721303105D1F077
:102380002115310561F02230310509F0B0C0E9E4D2
:10239000F5E0E4918E2F90E0E9E4F5E007C0E5E890
:1023A000F5E0E4918E2F90E0E5E8F5E0009709F480
:1023B0009EC0A5CFEFE6F5E0E4918E2F90E0EFE62A
:1023C000F5E0F4CF8330910508F091C0880F991F94
:1023D000FC01E859FE4F0190F081E02D89E090E08A
:1023E0008ECF82E190E0E7E3F5E089CF8091800233
:1023F000882309F465CF853009F462CF8091E80025
:1024000083FD5ECF8091E80082FD8DCF8091E80052
:1024100080FF83CF9091F3008091F2002115310568
:1024200019F08830910550F041E0089709F040E03C
:102430008091E8008E778093E8006FCF44914093BD
:10244000F1003196215031090196E8CF803809F02A
:102450004EC08091E800877F8093E80080918102E0
:102460008093F1009DCE811142C010918402123000
:10247000F0F58091E800877F8093E8001093810257
:102480000E947903112311F084E005C08091E300DC
:1024900087FDFACF81E08093800242E061EC81E029
:1024A0000E94980342E261EC84E00E94980342E2B9
:1024B00061EC82E00E94980342E260EC83E00E94BB
:1024C00098038091800213C080918402813079F456
:1024D00081E0933009F080E080937F021092E90060
:1024E0008091E800877F8093E8000E9479038091C3
:1024F000E80083FF0AC08091E800877F8093E800AE
:102500008091EB0080628093EB00AA96E3E00C944C
:102510002F230E94B50F2FEF84E39CE021508040D1
:102520009040E1F700C0000088E19CE00FB6F8940D
:10253000A895809360000FBE90936000FFCFA5E048
:10254000B0E0E5EAF2E10C9405238C01FC01838103
:102550009481892B31F08081918189238F3F09F00B
:10256000ABC52596E1E10C9421230E94D30AF82EF5
:10257000682F89819A810E94CB0869817A818F2D89
:102580000E94C50A7C01F8018281882309F487C56D
:10259000970122513F452031310508F053C58FEF97
:1025A00093E00E943B23811128C0FEEEEF0E57E01E
:1025B000852E52E0952EE11032C01C821B824424ED
:1025C00043944AE0342E74018FEFE81AF80AC401EC
:1025D0000E943B2389831A82882379F09FEF980F0A
:1025E000933058F58A83498292E0890E911CC70185
:1025F0000E943B238B83811121C08091E101877070
:1026000009F4AFCFF8018281882309F4AACF809121
:10261000570282FFA6CF82E00E94680DA2CF8114EC
:1026200024E0920651F3C4010E943B23811101C0B2
:10263000EA943FEF831A930ABECF4701FE01319619
:102640007F01F7012081222309F4BDCF213009F059
:1026500047C091818281913031F4F2E0EF0EF11C9C
:102660000E94CF0E07C0923049F422E0E20EF11C26
:102670000E941B0E3FEFE31AF30AE3CF933031F4CD
:1026800032E0E30EF11C0E94C20DF4CF943021F031
:102690008FEFE81AF80AEECF92E0E90EF11C30E075
:1026A00020E0B7016F5F7F4FF70141818053990BA5
:1026B0008A30910550F021503109E0F28FE99FE016
:1026C0000197F1F700C00000F6CF329EF001339E73
:1026D000F00D11249C012E0F3F1F842F7B01E1CFB1
:1026E000E22FF0E0EC50FE4F5490822F86958695B5
:1026F000869590E0FC01EC51FE4F64902770712CA0
:10270000022E02C0759467940A94E2F7E1E06E220B
:102710007724FC01EC52FE4FA490B12C022E02C093
:10272000B594A7940A94E2F7F1E0AF22BB24FC0130
:10273000EC53FE4FC490D12C02C0D594C7942A9577
:10274000E2F721E0C222DD246114710419F081EE68
:102750000E941B0EA114B10419F086EE0E941B0EFC
:10276000852D0E94CF0EA114B10419F086EE0E94AF
:10277000C20D6114710419F081EE0E94C20DC114E2
:10278000D10409F477CF8CE26BCF81E00E94A00DD9
:102790000E944F0D32CF81E00E945B0DF9CF82E0A5
:1027A000F5CF95EFE9169CE5F90609F46CC008F43D
:1027B00066C027E245EE66EEF6EFEF16FCE5FF0693
:1027C00009F469C4882309F488C410928C0223E0B8
:1027D000E2162DE5F20608F05DC03AEFE3163CE59F
:1027E000F30630F4C70182509C45449708F05FC05F
:1027F0000E94520B9093570280935602F2E1EF161B
:10280000FCE5FF0609F476C108F0B4C039E0E31630
:102810003CE5F30609F44CC108F077C095E0E916F1
:102820009CE5F90609F434C108F05DC0F3E0EF1649
:10283000FCE5FF0609F424C108F026C18091560288
:10284000816032E0E3163CE5F30609F490C0609144
:102850005602F090570284E090E00E944F236F2DC3
:1028600082E290E00E944F230E94B50FC6CE27E27D
:1028700045EE65EE10C426E241EE60EE0CC427E2A0
:1028800045EE64EE08C426E241EE62EE04C428E29E
:1028900041E0EFCF85EAE8168DE5F80609F4A8CF08
:1028A000E0F4E1E6EE16EDE5FE0609F4A1CF96E1CF
:1028B000E9169CE5F90609F01DC4809103028A7AA5
:1028C00091E009F490E09093900181113DC189E27B
:1028D0000E9459080E94D90C90CEC7018D5A9D457F
:1028E000039728F785CF87E0E8168CE5F80609F40A
:1028F000DBC080915602806198E0E9169CE5F906FC
:10290000B0F180915602806432C0EDE0EE16ECE545
:10291000FE0609F4D7C0A0F4809156028E7F2BE00A
:10292000E2162CE5F20619F1809156028C603CE02B
:10293000E3163CE5F306D8F0809156028D7F17C070
:102940008FE0E8168CE5F80609F4CCC008F4BEC0A8
:10295000E0E1EE16ECE5FE0609F4C8C080915602EF
:102960008F7BF1E1EF16FCE5FF0609F070CF809355
:1029700056026DCF2FEFE2162CE5F20609F4C4C023
:10298000D8F58AEFE8168CE5F80609F485C0D0F48E
:10299000E4E1EE16ECE5FE0609F4C4C008F4B0C0AC
:1029A00025E1E2162CE5F20609F051CF809156029E
:1029B00082FB992790F921E0922790FB82F990FB06
:1029C00083F9D5CF3CEFE3163CE5F30609F482C06A
:1029D00008F466C09DEFE9169CE5F90609F47EC08F
:1029E000809157028360EEEFEE16ECE5FE0609F0EB
:1029F0002ECF809357022BCFF1E6EF16FDE5FF06B1
:102A000009F49BC0A0F431E0E3163DE5F30609F4B8
:102A100092C008F47DC060E092E0E9169DE5F906F9
:102A200009F015CF8EE090E00E944F2310CFEDEA21
:102A3000EE16EDE5FE0601F168F490915602892F3D
:102A40008E7F90FF816025EAE2162DE5F20609F4FB
:102A50008ECFFDCE3EEAE3163DE5F30679F18FEA2F
:102A6000E8168DE5F80609F0F2CE90915702892F0D
:102A7000877F93FF8860BDCF809157028860B9CF70
:102A800080915602826073CF8091560284606FCF2E
:102A90008091560288606BCF809157028160A9CFE8
:102AA000809157028260A5CF8091560280625FCFED
:102AB0000E94B50F80915602806859CF80915702CD
:102AC000877F97CF809156028B7F51CF809156029E
:102AD000877F4DCF809157028E7F8BCF8091570299
:102AE0008D7F87CF809156028F7E41CF8091560295
:102AF0008F7D3DCF0E94B50F809156028F7737CFE3
:102B000080915602837F33CF809157028C7F71CFA3
:102B100080915702982F909591708E7F892B90FB12
:102B200081F967CF0E94B50F90915602892F97FBCC
:102B300087F980581CCF61E075CF90915602892F9C
:102B40008F7E94FF806113CF85E3C2CE85E3CFC231
:102B500081608093460261E086950E949C0C4DCD79
:102B60004AEB5CE064EC7CE00E94E70446CD44EC78
:102B70005CE06AEB7CE0F8CF44E65CE06EE67CE08B
:102B8000F3CF40E35CE06DE37CE0EECF61E081E019
:102B9000E4CF0E94B50F3FEF84E39CE031508040CA
:102BA0009040E1F700C000000E9497098091570211
:102BB00082FB882780F991E089270E94840DF80123
:102BC0008281E080F180882309F445C0C7010E941A
:102BD000D30AD82E682FC7010E94CB08B7018D2DCC
:102BE0000E94C50A0E9494067C01882EF801D280BA
:102BF000B580B2943FE0B3228091E1018770C1F0CB
:102C0000AD2CDD20B1F08F2D807F803421F080E26B
:102C10008E0D883068F08091570282FF09C082E0F3
:102C20000E94680D8091E1018770AA24A39481110C
:102C3000A12C9F2C92942FE09222FBE0F91508F42E
:102C400079C0E92DF0E0E456FC4D0C94F72281E0C8
:102C5000B4CF80E0B2CFC7010E949708D82EBECF74
:102C60002F2D2F70C22E8F2D807F19F0C29490EFE0
:102C7000C922DD20B9F0CC2069F080E28E0D8830C9
:102C800010F0811009C080910302C82AC09203028B
:102C90000E94D90C8E2D4CC080910202C82AC0928D
:102CA0000202F6CF8E2D0E94C20DCC2009F442C044
:102CB00080E28E0D883010F0811004C08C2D0E94AF
:102CC000270806C0C09480910202C822C092020266
:102CD0000E94D90C2FC03F2D3F70C32E8F2D807FB7
:102CE000803219F0C29480EFC822882089F081E0F8
:102CF000881609F468C0DD2009F472C0BB2009F40D
:102D000068C0F801858180FFC5CF8F70858361C061
:102D10002091570222FD35C0DD2069F1CC2039F029
:102D200080910302C82AC09203020E94D90C80E05D
:102D30000E941B0E292D2850330B2430310510F42E
:102D40000E94DA04AA2009F40CCC8091E10180FDF4
:102D500008CCF80112828595859585950E94A00D75
:102D6000C8010E949F128091E10185958595859506
:102D70000E945B0DF6CB80E00E94C20DCC20D1F208
:102D80009DCFDD2099F0909104028C2D892BB110FC
:102D900003C00E94B80DCECFE1E0BE12FACF22FFF1
:102DA000C9CF981739F280930402C4CFB11006C07E
:102DB0000E9421088C2D0E94B10DBCCFF1E0BF16FE
:102DC00009F4B8CFF5CFDD2031F025E02B1508F45C
:102DD000B1CF8C2DDECF34E03B1508F4ABCFEACF7A
:102DE000BB2041F3F9E38F1209C02FEF37EE83E0E8
:102DF000215030408040E1F700C000008E2D0E943D
:102E0000C20D98CF8F2D86958695837061F08130A5
:102E100009F090CFC7019370D11002C090E080E01C
:102E20000E94AE0487CFC7019370D11002C090E01A
:102E300080E00E94C4047ECF8E2DDD2029F00E9408
:102E4000DE050E94FC0476CF0E942305FACF8F2D69
:102E5000837091F5D1106ECF4E2D429546954770F7
:102E6000440F440F8E2D8F70042E01C0880F0A94DA
:102E7000EAF72E2D2071E4FE07C02FE030E001C0FC
:102E8000220F4A95EAF720953F2D369536953370F7
:102E9000323069F050F440910502313029F0822B34
:102EA00084230E94AC0D46CF842B822BFACF282B93
:102EB000809105028227F5CF8695DD2011F08F2DB8
:102EC0008170882309F436CF4E2D42954695477080
:102ED000440F440F8E2D8F70042E01C0880F0A946A
:102EE000EAF72E2D2071E4FE07C02FE030E001C08C
:102EF000220F4A95EAF720953F2D36953695337087
:102F0000323069F050F440918D02313029F0822B3B
:102F100084230E944A0D0ECF842B822BFACF282BBC
:102F200080918D028227F5CF9F2D9F70F92EDD2095
:102F300029F0892F0E94A00D8E2D2BCF8E2D0E945F
:102F4000B10D8F2D0E945B0DF5CE8E2DE2EF8E160A
:102F5000B1F1E81570F0F0EF8F16D1F021EF821685
:102F600091F0DD2009F45EC0B11094CE8F2D8F71E9
:102F70002AC033EF831651F194EF8912F2CF80917A
:102F8000570282FD2FC08F2D8F71DD20D9F21BC01B
:102F9000DD2081F0E4E0EB1508F4CCCE2F2D2F716D
:102FA00081E090E001C0880F2A95EAF790918D02A8
:102FB0008927AFCFF5E0FB1508F4BCCEEFCF8F2DFE
:102FC0008F71D110BFCF0E94A00DB4CE80E0DD2064
:102FD00009F49FCF9F2D9F7181E001C0880F9A95C2
:102FE000EAF797CFDD2099F02F2D2F71F22E822F47
:102FF0000E94A00D8091570282FF07C038E0F39E27
:10300000C001112483608093E1018F2DDCCF81E02A
:103010000E94680D81E08B1508F08CCE82E00E9442
:10302000680D88CEBB2059F0893309F0E7CE9FEFB9
:10303000E7EEF3E09150E040F040E1F7DDCE8F2D78
:103040008F7180CFF0E1EF16FFE5FF0609F49DCB0D
:1030500021E1E2162FE5F20609F4A1CB93EFE91680
:103060009CE5F90609F407CC08F09BCBF8EDEF16C8
:10307000FCE5FF0609F4FBCB29EDE2162CE5F20690
:1030800009F405CC37EDE3163CE5F30609F09ACBDD
:1030900026E241EE61EEC8010E94ED0EAECA30E1BB
:1030A000E3163FE5F30609F476CB91E1E9169FE5D7
:1030B000F906A1F682E070CB85E0DE011196019061
:1030C0000D928A95E1F7F801228189819A81211177
:1030D0004CCA0E949708F82E50CAF6E1EF16FCE59C
:1030E000FF0661F580919001811130CD89E20E9447
:1030F0002E08F0CB2AE5E2162DE5F20609F4A7CD5D
:1031000078F4E1148CE5F80609F443CD9EEDE91658
:103110009CE5F90609F053CD0E944A0F0E948912DE
:10312000ECE5EE16EDE5FE0609F440CD08F491CD90
:1031300027EAE2162DE5F20689F341CD80910302DC
:10314000827239ECE3163CE5F30609F41ACD08F077
:103150004BC0E5ECEE16ECE5FE0609F40DCD58F596
:1031600023ECE2162CE5F20609F4FACC08F0FFCCC9
:1031700082ECE8168CE5F80609F021CD8091460234
:1031800080FFE6CC8E7F809346026091460270916C
:10319000470280914802909149020E94600BEFEF34
:1031A000F0E722E0E150F0402040E1F700C00000ED
:1031B0000E94BB0922CA4AE45CE067E57CE097EC28
:1031C000E9169CE5F90609F4CFCC4EE65CE064E62E
:1031D0007CE0E8ECEE16ECE5FE0608F4C5CC47E52D
:1031E0005CE06AE47CE0C0CCFDECEF16FCE5FF0699
:1031F00009F4CCCCC8F448E75CE06AE87CE03BEC3E
:10320000E3163CE5F30609F4AFCC4DE35CE060E384
:103210007CE09CECE9169CE5F90608F4A5CC4AE8AC
:103220005CE068E77CE0A0CCE6EDEE16ECE5FE069F
:1032300008F4E3C9FDE5EF16FF0609F4DEC9BFCCCB
:103240001F93CF93DF938091AE01807F09F049C037
:103250008091AB01882309F444C08091E001D091B2
:10326000AF016091A9017091AA01A091AC01B09148
:10327000AD01C62FC72316E0D81799F190E010973B
:1032800011F0CF3F19F401968770F6CF189F900187
:10329000199F300D1124F901E055FE4F418147136C
:1032A000F2CF40814613EFCF42814111ECCF4381F1
:1032B00054814A1B5B0B483C510528F78091AE01B5
:1032C0008F7080618093AE01F901EB54FE4F8081D5
:1032D0008F708061808389EA91E00E949F120E9432
:1032E0008D08DF91CF911F910895A1E1B0E0EBE748
:1032F000F9E10C940C238C0185E0F801DE011D96A8
:1033000001900D928A95E1F7F801E28089EAA82EF2
:1033100081E0B82E6091AC017091AD01611571052D
:1033200009F426C19091A9014091AA01892F842313
:103330008F3F09F41DC120813181C380D480F0907A
:10334000AB01F601E61BF70BFF2009F4DCC080910E
:10335000AE01582F507FE83CF10508F09FC0511195
:103360006BC0FE2C431314C0921312C0E11010C0A6
:103370008F7080618093AE01C5010E949F12809181
:10338000AE01F80185838F2D6196EAE00C94282325
:10339000C114D10429F0822F83238F3F09F003C188
:1033A00080E0F82FF170DF2E80FF3CC08091E001BB
:1033B0004091AF0156E0841315C02D873E878D855F
:1033C0009E850E94020B292F22952F702230F0F04B
:1033D000243018F59F70F1F0F8019581907FD1F4B9
:1033E000D12C1EC090E0589FF001599FF00D112480
:1033F000E055FE4F6181361306C06081261303C07D
:103400006281E6120FC001968770D5CF9F7011F0D0
:10341000882331F3805E883018F3C8010E949F1220
:10342000FD2CB1CFEE2009F4AECF8091AE018160CA
:103430008093AE01F12CA7CF431306C0921304C0B2
:10344000F801EE2009F479C0C8010E940F0B88230F
:1034500009F1EE20F9F08091AE01803270F02091F8
:10346000A9013091AA0138872F831986DB86CA8685
:103470008C87CE0107960E949F1286E0F801A9EA88
:10348000B1E001900D928A95E1F70E942019FF2486
:10349000F39479CFC8010E949F12F9CF51110AC04D
:1034A00089EA91E00E949F1286E0F50111928A95C7
:1034B000E9F7C0CF43130FC092130DC0E1100BC04A
:1034C000F8018583C8010E949F1286E0F5011192E0
:1034D0008A95E9F758CFC8010E940F0B8823D1F2D3
:1034E000EE20C1F28091AE01803238F22091A90124
:1034F0003091AA013A8329831B82DD82CC828E839C
:10350000CE010196B8CFE83CF105F8F6FE2CEE208E
:1035100009F243131FC092131DC08091AE0180FDBC
:1035200010C0982F907F69F0F8018583903F31F0AB
:10353000982F907F905F8F70892B8583C8010E94A0
:103540009F1286E0F801A9EAB1E001900D928A95F8
:10355000E1F719CFC8010E940F0B81118ECF809126
:10356000AE0181608093AE01C8010E949F120BCF13
:10357000EE2009F48FCFC8010E940F0BF82E88238C
:1035800009F488CF86E0F801A9EAB1E001900D9234
:103590008A95E1F78091A9019091AA010E94020BFE
:1035A0000E942019F0CE81E08E25FBCEA7E1B0E08D
:1035B000ECEDFAE10C9413234B8B5C8B6D8B7E8BC3
:1035C0008F8B6111109202021A8A198A85E0FE011E
:1035D0007396DE011D9601900D928A95E1F786E0C3
:1035E000FE013D96DE01179601900D928A95E1F756
:1035F000CE0107960E947519882359F016E0809134
:10360000E0019091AF01891343C06796E3E00C9409
:103610002F2386E0FE013796DE01119601900D9270
:103620008A95E1F78A859B85892B41F38F8198855F
:1036300089238F3F19F32091AF0130E0C901019632
:10364000877099274091E0014817190671F40E948C
:10365000B50F1092AF011092E00186E0E9EAF1E0C7
:10366000DF011D928A95E9F7C9CF96E0929FD001BC
:10367000939FB00D1124A055BE4FFE0131960190CD
:103680000D929A95E1F78093AF010E948D08B6CF15
:10369000819FC001112480559E4F0E947519882377
:1036A00009F4B3CF8091E00190E0019687709927EB
:1036B0008093E001A4CFAAE0B0E0E1E6FBE10C9446
:1036C00008238E010F5F1F4F8AE0D8011D928A9553
:1036D000E9F72EE3E22E21E0F22ECC24C394D12C84
:1036E00088248394912C5FE4A52E51E0B52EF70138
:1036F00081917F018F3F09F449C0F894E82FE2954A
:10370000EF70F0E021A18F70A40102C0440F551F9B
:103710008A95E2F7CA01922F982B91A392A18095E6
:10372000892382A3789400C09AE4692E91E0792ECF
:10373000F801A60140955095D3016D913D0180811E
:1037400091816F3F09F463C0262F22952F7030E0DE
:10375000D90190962C9130E06F7002C03595279575
:103760006A95E2F720FD53C08C299D2991838083BF
:103770003296A614B70401F7F701319780818F3F85
:1037800011F00E943A06B0EABA95F1F7CC0CDD1CB4
:10379000EAE4EE16E1E0FE0609F0A9CF4AE050E0C7
:1037A000B80189E092E00E948323892B99F18AE095
:1037B000F801A9E0B2E001900D928A95E1F781E06D
:1037C000809308020E94A20490930702809306024D
:1037D00080910602909107020E9487040597F0F0FD
:1037E0004AE050E069E072E086E292E00E948323C2
:1037F000892BC9F08AE0E9E0F2E0A6E2B2E00190AC
:103800000D928A95E1F781E01092080208C08423A6
:103810009523ACCF809108028111DACF80E02A96FF
:10382000EEE00C94242380E0EFCF90E080E00E9453
:103830004923883E9E4F19F40E94390B089580E079
:1038400008951F920F920FB60F9211242F933F935A
:103850004F935F936F937F938F939F93AF93BF9398
:10386000CF93DF93EF93FF93D091E900DF708091C6
:10387000EC00C82FC17080FDC0E81092E900809173
:10388000F000877F8093F00078940E94CB0F109215
:10389000E9008091F00088608093F000CD2BCF701C
:1038A000C093E900FF91EF91DF91CF91BF91AF916C
:1038B0009F918F917F916F915F914F913F912F9148
:1038C0000F900FBE0F901F9018951F920F920FB67A
:1038D0000F9211242F933F934F935F936F937F9396
:1038E0008F939F93AF93BF93EF93FF938091E100EA
:1038F00082FF09C08091E20082FF05C08091E10053
:103900008B7F8093E1008091DA0080FF24C080915A
:10391000D80080FF20C08091DA008E7F8093DA008B
:103920008091D90080FF9DC080E189BD82E189BD81
:1039300009B400FEFDCF81E08093800280915B029C
:10394000811109C00E94FF020E94CA038091E20017
:1039500084608093E2008091E10080FF17C0809135
:10396000E20080FF13C08091E2008E7F8093E2002E
:103970008091E20080618093E2008091D8008062B3
:103980008093D80019BC85E0809380028091E1008B
:1039900084FF2BC08091E20084FF27C080E189BDB5
:1039A00082E189BD89B5982F917080FFFBCF80910E
:1039B000D8008F7D8093D8008091E1008F7E809326
:1039C000E1008091E2008F7E8093E2008091E2002E
:1039D00081608093E20080918102882309F447C0CE
:1039E00084E080938002809180028091E10083FFD7
:1039F00027C08091E20083FF23C08091E100877F90
:103A00008093E10082E08093800210928102809195
:103A1000E1008E7F8093E1008091E2008E7F8093B1
:103A2000E2008091E20080618093E20042E060E089
:103A300080E00E9498038091F00088608093F000FD
:103A4000FF91EF91BF91AF919F918F917F916F9176
:103A50005F914F913F912F910F900FBE0F901F904C
:103A6000189519BC1092800210925B0274CF80915D
:103A7000E30087FD93E090938002B5CF78941F9286
:103A80001FB61F9211248F939F93AF93BF93809182
:103A9000520290915302A0915402B09155020196A6
:103AA000A11DB11D8093520290935302A093540222
:103AB000B0935502BF91AF919F918F911F901FBE00
:103AC0001F9018951F921FB61F9211248F939F93DA
:103AD000AF93BF9380915102811113C08091520224
:103AE00090915302A0915402B09155024196A11DAC
:103AF000B11D8093520290935302A0935402B0934D
:103B00005502BF91AF919F918F911F901FBE1F9043
:103B10001895CDB7DEB7AA970FB6F894DEBF0FBEE3
:103B2000CDBF85B7806885BF85B7806885BF84B7FE
:103B3000877F84BF0FB6F894A89580916000886154
:103B400080936000109260000FBE80E890E00FB696
:103B5000F89480936100909361000FBE88E396E033
:103B600090936F0180936E010E94FF020E94CA032E
:103B70008091E20084608093E200789480918002DA
:103B80008823A1F01091E9001F709091EC00892F1B
:103B9000817090FD80E8182B1092E9008091E80078
:103BA00083FD0E94CB0F1F701093E90082E084BD5B
:103BB00093E095BD9AEF97BD80936E000E94390BFC
:103BC000811102C00E94860A0EE311E0D8018D9196
:103BD0008D018F3F11F00E943A06B1E00A341B07B5
:103BE000A9F70AE411E0F80181918F018F3F11F0EC
:103BF0000E943A06F1E00F341F07A9F78AE0E6E2D7
:103C0000F2E0DF01282F1D922A95E9F7E9E0F2E0C2
:103C1000DF011D928A95E9F70E94151C811102C0EF
:103C20000E944A0F82E090E00E943B23809316029C
:103C30000E94520B90935702809356020E945B1B86
:103C4000BFEFE6E7F1E0B150E040F040E1F700C03F
:103C500000000E945B1B8091260280FF08C06FEF6E
:103C60007FEF90E080E00E946D230E94970983E03F
:103C700090E00E943B230E94AC0D809113028111C1
:103C800031C00E94151C811104C00E944A0F0E947D
:103C9000C90C88E090E00E94432360934602709331
:103CA000470280934802909349026E7F71F40E940C
:103CB000C90C88E090E00E94432360934602709311
:103CC000470280934802909349020E94ED0480913C
:103CD000460280FF04C060E086950E949C0C81E053
:103CE0008093130281E08093230255985D9A279870
:103CF0002F9A8FE891E00197F1F700C00000409102
:103D0000230264E272E0FB018E2F861B841708F405
:103D10006BC080E091E090934E0280934D0270E37F
:103D2000472E72E0572EE4E06E2E712C80918002B7
:103D300000E112E1853009F4A0C00E945B1B57E14D
:103D4000A52E52E0B52E66E2862E62E0962E41E266
:103D500052E0D401F501219131918D919D914E1741
:103D60005F0709F494C028173907A9F3312CD4014F
:103D70000D911D914D01F501C190D1905F01C016CB
:103D8000D10659F1C026D126212CEE24E394F12C42
:103D9000C6018E219F21892BB1F02EA23FA221E0E6
:103DA000C8018E219F21892B09F420E028A70E94B9
:103DB000A2048160782F9AA789A74EA15FA168A568
:103DC0008AA50E94D61A2394EE0CFF1CFCE02F1249
:103DD000DFCFF501329711830083339425E032124F
:103DE000C6CF0E94960475C089B185FB882780F9EB
:103DF00023B130E0220F232F221F330B90E0232B1F
:103E000009F092E0892B81937FCF809180028430EA
:103E100021F110925102A8E1B0E0E0E40FB6F8946D
:103E2000A895A09360000FBEE093600083B7817FE8
:103E3000846083BF83B7816083BF7894889583B79C
:103E40008E7F83BF0FB6F894A8958091600088613B
:103E500080936000109260000FBE80917F028823E3
:103E600061F00E945B1BE6E2F2E081919191892B67
:103E700009F06CC34E165F06C1F780918002853051
:103E800009F4C3CF0E94B50F0E94DA0456CF281759
:103E9000390709F06BCF0E94A2048C0180911402B3
:103EA0009091150208171907A1F08FEF89A38AA333
:103EB0001BA20E94A2048160782F9DA38CA349A11C
:103EC0005AA16BA18DA10E94D61A109315020093DE
:103ED0001402D12CC12C54C0ED2CF12CE9B1E5FB1E
:103EE000EE27E0F983B190E0880F892F881F990BA6
:103EF000892B09F050C180E08E2BD701AC5DBD4FFE
:103F0000EC919E2F93708917D1F1EE0FEE0FE82BF5
:103F1000EC93EF70F0E0E15BFE4F87010E5D1D4F0B
:103F20008081D8019C91890F8C9320E0843064F0CB
:103F3000F701EF5DFD4F80818F5F8083D11003C05B
:103F40008AEA0E94CF0E21E0F80180818D3F64F45F
:103F5000F701EF5DFD4F808181508083D11003C058
:103F600089EA0E94CF0E21E0D8018C91082E000C26
:103F7000990BB3010E94E322F8018083C22AD394F3
:103F800080912302D81608F4A7CFC1100E9496048E
:103F900086E0E7E3F2E0DE01119601900D928A954A
:103FA000E1F71092390210923A0210923B021092FD
:103FB0003C028B819C81892B09F44AC08091350297
:103FC000909136020E9487049C01909131029923BE
:103FD00009F4E0C225313105D8F19F3F19F09F5F08
:103FE000909331021B81112359F00E94BE059FEF6F
:103FF00011160CF491E0899F802D112480933902D1
:104000001C81112359F00E94BE059FEF11160CF47C
:1040100091E0899F802D112480933A0230913902DA
:104020003323B1F020913A02222391F045EB34037F
:10403000C0011124992309F4B0C09093390245EBD3
:10404000240390011124332309F4ABC030933A02C6
:104050008D819E81892B09F44AC080913302909111
:1040600034020E9487049C0190913002992309F444
:104070008CC221353105D8F19F3F19F09F5F909395
:1040800030021D81112359F00E949C059FEF1116EB
:104090000CF491E0899F802D112480933B021E81B6
:1040A000112359F00E949C059FEF11160CF491E02A
:1040B000899F802D112480933C0230913B02332351
:1040C000B1F020913C02222391F045EB3403C00172
:1040D0001124992309F469C090933B0245EB240312
:1040E00090011124332309F464C030933C0246E06C
:1040F00050E0BE016F5F7F4F87E392E00E94832311
:10410000892B61F48091390290913A02892B909128
:104110003B02892B90913C02892B11F00E94FC04F8
:1041200086E0FE013196A7E3B2E001900D928A95F8
:10413000E1F70E94DA0490912502891721F080931B
:1041400025020E94960480918002843009F0EECD11
:1041500083E08093E9008091E80082FFE7CD8091C1
:10416000E80090E085FF05C00E941E03882329F126
:1041700091E08091E8008B778093E800992309F41F
:10418000D5CDE981E150E33108F0ADC0F0E0E8556C
:10419000FC4D0C94F72282E0AFCE81E0809339028F
:1041A0004ECF81E080933A0253CF81E080933B026F
:1041B00095CF81E080933C029ACF80E2E82EF12CEB
:1041C0008E010F5F1F4F8091E80085FD0AC080912E
:1041D000E8008B778093E8000E941E03882399F300
:1041E000C7CF8091F100D8018D938D01B1E0EB1A1A
:1041F000F10849F7BDCF1A828AE08B8311C08A810A
:10420000823009F4B9C1833091F1813009F06BC07B
:104210000E9496040E94FD226B837C838D839E8383
:1042200080918002843009F081CD1091E9001F70E7
:104230009091EC00892F817090FD80E8182B82E02E
:104240008093E9008091E80080FF0DC050E040E0DD
:1042500060E270E0CE0101960E944F038091E80079
:104260008E778093E8001F701093E9005FCD8091F6
:104270002602909127029827892798279C838B8371
:1042800080912802909129029827892798279E8358
:104290008D8380912A0290912B0298278927982755
:1042A00098878F8380912C0290912D0298278927DF
:1042B00098279A87898780912E0290912F029827BC
:1042C000892798279C878B87ABCF8A81823059F4C6
:1042D0006B817C818D819E810E94FD2286E290E02F
:1042E0000E944F239DCF8FEF89839ACF4C816B81A2
:1042F0008A810E94960A9827892798279E838D8312
:104300008FCF2D813E813227232732274C816B812D
:104310008A810E94080A84CF0E942E0A81CF8A8156
:10432000813809F1A8F4803809F07ACF8B81EFEF5A
:104330008E9FC00111246FEF70E00E94CF22462FA4
:1043400020E060914802809147020E94730B68CF81
:10435000823849F1833809F063CF20E04091490267
:104360006C818B81F2CF60E08B810E949C0C9B81E1
:104370008091460291110FC08E7F80934602FFEF1D
:1043800020E742E0F15020404040E1F700C000004B
:104390000E94BB0945CF81608093460260E086950C
:1043A0000E949C0C3DCF8B8180934A0239CF8A8139
:1043B0008138E1F078F4803809F032CF80914902F9
:1043C000AFEF8A9FC00111246FEF70E00E94CF22EF
:1043D0006B8326CF823891F0833809F021CF80910A
:1043E00047028B83809148028C831ACF80914602CA
:1043F00080FF02C0869501CF80E0FFCE80914A0207
:10440000FCCE6091460270914702809148029091E3
:1044100049020E94600B04CF80E18A8301CF81E0D2
:104420008A8389EFEACE0A811B8110270127102792
:10443000FE0131967F01CC80CF018C0D911D6C0166
:10444000C801895F9D4FCE14DF0409F4E9CE093F0E
:10445000A1E01A0750F40E943B23F70184830F5F09
:104460001F4FBFEFEB1AFB0AEBCFD70114961C923C
:10447000F6CF0A811B81102701271027FE013196F4
:104480006F01EC80E00EF12EF11CC801895F9D4F99
:104490000E151F0509F4C4CE093FF1E01F0728F4EB
:1044A000D60114966C910E944F23BFEFCB1ADB0A02
:1044B0000F5F1F4FEACF0E94F809B2CE84E0ADCF64
:1044C0000A811B81102701271027FE0131967F01E9
:1044D000CC80CF018C0D911D6C01C8018796EC1426
:1044E000FD0409F49DCE003EA1E01A0750F40E949D
:1044F0003B23F70184830F5F1F4FBFEFEB1AFB0ACB
:10450000ECCFD70114961C92F6CF0A811B8110279D
:1045100001271027FE0131966F01EC80E00EF12E8D
:10452000F11CC8018796E016F10609F479CE003E29
:10453000F1E01F0728F4D60114966C910E944F23D6
:10454000BFEFCB1ADB0A0F5F1F4FEBCF09BD19BDC1
:1045500009B400FEFDCF8091D8008F7D8093D800F4
:104560008091E00082608093E0008091E00081FD16
:10457000FCCF0E94B50F81CC86E290E00E943B23E5
:104580001B821C821D828E834BCE2B30310508F09E
:1045900075CDADCD2B30310508F021CD59CDAA1BFD
:1045A000BB1B51E107C0AA1FBB1FA617B70710F01E
:1045B000A61BB70B881F991F5A95A9F78095909550
:1045C000BC01CD01089597FB072E16F4009407D087
:1045D00077FD09D00E94CF2207FC05D03EF49095CC
:1045E00081959F4F0895709561957F4F0895EE0FC7
:1045F000FF1F0590F491E02D0994692796276927FC
:1046000078278727782708952F923F924F925F92BD
:104610006F927F928F929F92AF92BF92CF92DF92D2
:10462000EF92FF920F931F93CF93DF93CDB7DEB737
:10463000CA1BDB0B0FB6F894DEBF0FBECDBF0994CB
:104640002A88398848885F846E847D848C849B8422
:10465000AA84B984C884DF80EE80FD800C811B8130
:10466000AA81B981CE0FD11D0FB6F894DEBF0FBE5F
:10467000CDBFED010895F999FECF92BD81BDF89AA5
:10468000992780B50895A6E1B0E044E050E00C948D
:104690007523A8E1B0E042E050E00C947523262F8A
:1046A000F999FECF92BD81BDF89A019700B4021628
:1046B00039F01FBA20BD0FB6F894FA9AF99A0FBED6
:1046C00008950396272F0E9450230E944F23252FE1
:1046D0000E945023242F0C9450230196272F0E94D0
:1046E00050230C944F23DC01CB01FC01F999FECF40
:1046F00006C0F2BDE1BDF89A319600B40D9241506A
:104700005040B8F70895FB01DC0104C08D91019081
:10471000801921F441505040C8F7881B990B089527
:10472000F894FFCFAC10D4107712D4107712071181
:104730002811771226123312301630166B166B16AC
:1047400002171C179A169A1627179417A517A5175C
:10475000FB20FF206521762181218C218F21D7210B
:104760000122732173210C220F22132239225B2292
:064770005E22602285229A
:1047760084045709360931092C098304018182838F
:10478600E200E900EA00B500B600B700CD008301FB
:10479600CC008A01920194012102230224022502FF
:1047A600260227022A02B300B4006F00700093921B
:1047B600F5359466323331F7F6F43697C63467002A
:1047C600FF0100010000FFFF0000010001FF0040A3
:0E47D60022B684016201AC00EE04070527053F
:00000001FF
